{
  "_format": "hh-sol-artifact-1",
  "contractName": "Marketplace",
  "sourceName": "contracts/nftmarket.sol",
  "abi": [
    {
      "anonymous": false,
      "inputs": [
        {
          "indexed": true,
          "internalType": "uint256",
          "name": "listingId",
          "type": "uint256"
        },
        {
          "indexed": true,
          "internalType": "address",
          "name": "seller",
          "type": "address"
        },
        {
          "indexed": true,
          "internalType": "address",
          "name": "nftContract",
          "type": "address"
        },
        {
          "indexed": false,
          "internalType": "uint256",
          "name": "tokenId",
          "type": "uint256"
        },
        {
          "indexed": false,
          "internalType": "uint256",
          "name": "price",
          "type": "uint256"
        }
      ],
      "name": "NFTListed",
      "type": "event"
    },
    {
      "anonymous": false,
      "inputs": [
        {
          "indexed": true,
          "internalType": "uint256",
          "name": "listingId",
          "type": "uint256"
        },
        {
          "indexed": true,
          "internalType": "address",
          "name": "buyer",
          "type": "address"
        },
        {
          "indexed": false,
          "internalType": "uint256",
          "name": "price",
          "type": "uint256"
        }
      ],
      "name": "NFTSold",
      "type": "event"
    },
    {
      "inputs": [
        {
          "internalType": "address",
          "name": "_owner",
          "type": "address"
        }
      ],
      "name": "getOwnedNFTs",
      "outputs": [
        {
          "internalType": "uint256[]",
          "name": "",
          "type": "uint256[]"
        }
      ],
      "stateMutability": "view",
      "type": "function"
    },
    {
      "inputs": [
        {
          "internalType": "address",
          "name": "_nftContract",
          "type": "address"
        },
        {
          "internalType": "uint256",
          "name": "_tokenId",
          "type": "uint256"
        },
        {
          "internalType": "uint256",
          "name": "_price",
          "type": "uint256"
        }
      ],
      "name": "listNFTForSale",
      "outputs": [],
      "stateMutability": "nonpayable",
      "type": "function"
    },
    {
      "inputs": [],
      "name": "listingId",
      "outputs": [
        {
          "internalType": "uint256",
          "name": "",
          "type": "uint256"
        }
      ],
      "stateMutability": "view",
      "type": "function"
    },
    {
      "inputs": [
        {
          "internalType": "uint256",
          "name": "",
          "type": "uint256"
        }
      ],
      "name": "listings",
      "outputs": [
        {
          "internalType": "address",
          "name": "seller",
          "type": "address"
        },
        {
          "internalType": "address",
          "name": "nftContract",
          "type": "address"
        },
        {
          "internalType": "uint256",
          "name": "tokenId",
          "type": "uint256"
        },
        {
          "internalType": "uint256",
          "name": "price",
          "type": "uint256"
        },
        {
          "internalType": "bool",
          "name": "isSold",
          "type": "bool"
        }
      ],
      "stateMutability": "view",
      "type": "function"
    },
    {
      "inputs": [
        {
          "internalType": "address",
          "name": "",
          "type": "address"
        },
        {
          "internalType": "uint256",
          "name": "",
          "type": "uint256"
        }
      ],
      "name": "ownedNFTs",
      "outputs": [
        {
          "internalType": "uint256",
          "name": "",
          "type": "uint256"
        }
      ],
      "stateMutability": "view",
      "type": "function"
    },
    {
      "inputs": [
        {
          "internalType": "uint256",
          "name": "_listingId",
          "type": "uint256"
        }
      ],
      "name": "purchaseNFT",
      "outputs": [],
      "stateMutability": "payable",
      "type": "function"
    }
  ],
  "bytecode": "0x608060405234801561001057600080fd5b50610e80806100206000396000f3fe6080604052600436106100555760003560e01c8063150bde031461005a57806318148f1b146100765780631a72b87d146100b35780633ae6c6d6146100f05780639405dfdd14610119578063de74e57b14610144575b600080fd5b610074600480360381019061006f919061089e565b610185565b005b34801561008257600080fd5b5061009d60048036038101906100989190610929565b6103ca565b6040516100aa9190610a14565b60405180910390f35b3480156100bf57600080fd5b506100da60048036038101906100d59190610a36565b610461565b6040516100e79190610a85565b60405180910390f35b3480156100fc57600080fd5b5061011760048036038101906101129190610aa0565b610492565b005b34801561012557600080fd5b5061012e6107da565b60405161013b9190610a85565b60405180910390f35b34801561015057600080fd5b5061016b6004803603810190610166919061089e565b6107e0565b60405161017c959493929190610b1d565b60405180910390f35b600080600083815260200190815260200160002090508060040160009054906101000a900460ff16156101ed576040517f08c379a00000000000000000000000000000000000000000000000000000000081526004016101e490610bcd565b60405180910390fd5b8060030154341015610234576040517f08c379a000000000000000000000000000000000000000000000000000000000815260040161022b90610c39565b60405180910390fd5b60018160040160006101000a81548160ff0219169083151502179055508060010160009054906101000a900473ffffffffffffffffffffffffffffffffffffffff1673ffffffffffffffffffffffffffffffffffffffff166323b872dd8260000160009054906101000a900473ffffffffffffffffffffffffffffffffffffffff163384600201546040518463ffffffff1660e01b81526004016102da93929190610c59565b600060405180830381600087803b1580156102f457600080fd5b505af1158015610308573d6000803e3d6000fd5b505050508060000160009054906101000a900473ffffffffffffffffffffffffffffffffffffffff1673ffffffffffffffffffffffffffffffffffffffff166108fc349081150290604051600060405180830381858888f19350505050158015610376573d6000803e3d6000fd5b503373ffffffffffffffffffffffffffffffffffffffff16827f6329e40c0365262ebbff5ca819385c2b9713dcaa050ed07866d72c441395699a346040516103be9190610a85565b60405180910390a35050565b6060600260008373ffffffffffffffffffffffffffffffffffffffff1673ffffffffffffffffffffffffffffffffffffffff16815260200190815260200160002080548060200260200160405190810160405280929190818152602001828054801561045557602002820191906000526020600020905b815481526020019060010190808311610441575b50505050509050919050565b6002602052816000526040600020818154811061047d57600080fd5b90600052602060002001600091509150505481565b600081116104d5576040517f08c379a00000000000000000000000000000000000000000000000000000000081526004016104cc90610cdc565b60405180910390fd5b3373ffffffffffffffffffffffffffffffffffffffff168373ffffffffffffffffffffffffffffffffffffffff16636352211e846040518263ffffffff1660e01b81526004016105259190610a85565b602060405180830381865afa158015610542573d6000803e3d6000fd5b505050506040513d601f19601f820116820180604052508101906105669190610d11565b73ffffffffffffffffffffffffffffffffffffffff16146105bc576040517f08c379a00000000000000000000000000000000000000000000000000000000081526004016105b390610d8a565b60405180910390fd5b600160008154809291906105cf90610dd9565b91905055506040518060a001604052803373ffffffffffffffffffffffffffffffffffffffff1681526020018473ffffffffffffffffffffffffffffffffffffffff16815260200183815260200182815260200160001515815250600080600154815260200190815260200160002060008201518160000160006101000a81548173ffffffffffffffffffffffffffffffffffffffff021916908373ffffffffffffffffffffffffffffffffffffffff16021790555060208201518160010160006101000a81548173ffffffffffffffffffffffffffffffffffffffff021916908373ffffffffffffffffffffffffffffffffffffffff160217905550604082015181600201556060820151816003015560808201518160040160006101000a81548160ff021916908315150217905550905050600260003373ffffffffffffffffffffffffffffffffffffffff1673ffffffffffffffffffffffffffffffffffffffff16815260200190815260200160002060015490806001815401808255809150506001900390600052602060002001600090919091909150558273ffffffffffffffffffffffffffffffffffffffff163373ffffffffffffffffffffffffffffffffffffffff166001547fb0fe4922ac99799c17a4130d5c045ba2ecdf6e15b75b9ea84aaf0dc28724a42b85856040516107cd929190610e21565b60405180910390a4505050565b60015481565b60006020528060005260406000206000915090508060000160009054906101000a900473ffffffffffffffffffffffffffffffffffffffff16908060010160009054906101000a900473ffffffffffffffffffffffffffffffffffffffff16908060020154908060030154908060040160009054906101000a900460ff16905085565b600080fd5b6000819050919050565b61087b81610868565b811461088657600080fd5b50565b60008135905061089881610872565b92915050565b6000602082840312156108b4576108b3610863565b5b60006108c284828501610889565b91505092915050565b600073ffffffffffffffffffffffffffffffffffffffff82169050919050565b60006108f6826108cb565b9050919050565b610906816108eb565b811461091157600080fd5b50565b600081359050610923816108fd565b92915050565b60006020828403121561093f5761093e610863565b5b600061094d84828501610914565b91505092915050565b600081519050919050565b600082825260208201905092915050565b6000819050602082019050919050565b61098b81610868565b82525050565b600061099d8383610982565b60208301905092915050565b6000602082019050919050565b60006109c182610956565b6109cb8185610961565b93506109d683610972565b8060005b83811015610a075781516109ee8882610991565b97506109f9836109a9565b9250506001810190506109da565b5085935050505092915050565b60006020820190508181036000830152610a2e81846109b6565b905092915050565b60008060408385031215610a4d57610a4c610863565b5b6000610a5b85828601610914565b9250506020610a6c85828601610889565b9150509250929050565b610a7f81610868565b82525050565b6000602082019050610a9a6000830184610a76565b92915050565b600080600060608486031215610ab957610ab8610863565b5b6000610ac786828701610914565b9350506020610ad886828701610889565b9250506040610ae986828701610889565b9150509250925092565b610afc816108eb565b82525050565b60008115159050919050565b610b1781610b02565b82525050565b600060a082019050610b326000830188610af3565b610b3f6020830187610af3565b610b4c6040830186610a76565b610b596060830185610a76565b610b666080830184610b0e565b9695505050505050565b600082825260208201905092915050565b7f4e465420697320616c726561647920736f6c6400000000000000000000000000600082015250565b6000610bb7601383610b70565b9150610bc282610b81565b602082019050919050565b60006020820190508181036000830152610be681610baa565b9050919050565b7f496e73756666696369656e742066756e64732073656e74000000000000000000600082015250565b6000610c23601783610b70565b9150610c2e82610bed565b602082019050919050565b60006020820190508181036000830152610c5281610c16565b9050919050565b6000606082019050610c6e6000830186610af3565b610c7b6020830185610af3565b610c886040830184610a76565b949350505050565b7f5072696365206d7573742062652067726561746572207468616e207a65726f00600082015250565b6000610cc6601f83610b70565b9150610cd182610c90565b602082019050919050565b60006020820190508181036000830152610cf581610cb9565b9050919050565b600081519050610d0b816108fd565b92915050565b600060208284031215610d2757610d26610863565b5b6000610d3584828501610cfc565b91505092915050565b7f596f7520646f6e2774206f776e2074686973204e465400000000000000000000600082015250565b6000610d74601683610b70565b9150610d7f82610d3e565b602082019050919050565b60006020820190508181036000830152610da381610d67565b9050919050565b7f4e487b7100000000000000000000000000000000000000000000000000000000600052601160045260246000fd5b6000610de482610868565b91507fffffffffffffffffffffffffffffffffffffffffffffffffffffffffffffffff8203610e1657610e15610daa565b5b600182019050919050565b6000604082019050610e366000830185610a76565b610e436020830184610a76565b939250505056fea264697066735822122052be744a324ced1e31ae44a5cdece4c15519f026c0cdc062ac4ae9b66084d5b964736f6c63430008130033",
  "linkReferences": {},
  "deployedLinkReferences": {}
}